:040000006AEF05F0AE
:020006001200E6
:1000080000C015F0F2A405D0F294D20ED66ECEEC54
:1000180004F0A1A202D0A192F2DF9EA004D09E908B
:0C002800CE6AAA0ECF6E15C000F01100C9
:100034005E50000A06E1F00E8314006E5F5000105B
:10004400836E5E50010A10E10F0E8314026E5FC0CE
:1000540000F0003600900036009000360090003624
:0A006400009000500210836E12009D
:10006E00220E0C6E086A096A0A6A0B6A0C06D8B46C
:10007E001FD0D8900B320A320932083203320232C4
:10008E0001320032D8A0F2D70C06D8B409D00450F1
:10009E0008260550092206500A2207500B22EAD7DD
:1000AE00045008260550092206500A2207500B223A
:0200BE0012002E
:1000C0004C0E046E000E056E59500426D8B0052A59
:1000D00004C0E9FF05C0EAFFEECF03F003C002F061
:1000E0000236029003C000F00032009E0032009EF3
:1000F0000032009E025000120F0E001604C0E1FFF5
:1001000005C0E2FF00C0E6FF59C05EF04C0EE96E8C
:10011000000EEA6E5950E926D8B0EA2AEECF5FF019
:0401200089DF120061
:0C01240059C05EF00F0E5F6E83DF12000A
:04013000006A12004F
:10013400470E016E000E026E59500126D8B0022AF5
:1001440001C0E9FF02C0EAFF5A50EE24006E01C06C
:0C015400E1FF02C0E2FF00C0E6FF120065
:100160004C0E046E000E056E59500426D8B0052AB8
:1001700004C0E9FF05C0EAFFEECF03F003C002F0C0
:100180000232029E03C000F000360090003600905C
:1001900000360090025000120F0E001604C0E1FF5E
:1001A00005C0E2FF00C0E6FF59C05EF04C0EE96EEC
:1001B000000EEA6E5950E926D8B0EA2AEECF5FF079
:0401C00039DF120011
:1001C4002B0EE96E000EEA6E5950E926D8B0EA2AE1
:1001D400EE50000A44E12B0E5B6E000E5C6E59502B
:1001E4005B26D8B05C2A030E006E000E016E026E10
:1001F400036E59C004F0000E056E066E076E35DFFF
:10020400F80E00260C0E0122000E0222010E00241C
:10021400F66E000E0120F76E000E0220F86E090043
:10022400F5CF00F05BC0E1FF5CC0E2FF00C0E6FF79
:100234005A50000A0AE1420EE16E000EE26E595075
:10024400E126D8B0E22AE66A0AD0420EE16E000E38
:10025400E26E5950E126D8B0E22A010EE66E120091
:1002640059C002F05AC003F05CC000F05DC001F058
:10027400010E5C5E000E5D5A0050011009E002C0E0
:10028400E1FF03C0E2FF5BC0E6FF024A032AECD7AA
:0A02940059C000F05AC001F012003A
:10029E00576A470EE96E000EEA6E5650E926D8B040
:1002AE00EA2AEE50000A02E1578201D05786030E69
:1002BE00006E000E016E026E036E56C004F0000E4C
:1002CE00056E066E076ECCDEF80E00260C0E0122B1
:1002DE00000E0222020E0024F66E000E0120F76EB2
:1002EE00000E0220F86E0900F5CF59F01ADF00500B
:1002FE00010AD8B457802B0EE96E000EEA6E5650E6
:10030E00E926D8B0EA2AEE50000AD8B4578457C06E
:04031E0000F01200D9
:100322004C0E596E000E5A6E090E5B6E040E5C6E18
:10033200000E5D6E96DF470E596E000E5A6E5B6AB6
:10034200040E5C6E000E5D6E8CDF420E596E000E66
:100352005A6E040E5B6E040E5C6E000E5D6E81DFE3
:10036200200E596E000E5A6E5B6A040E5C6E000E11
:100372005D6E77DF2B0E596E000E5A6E5B6A0C0EA5
:0A0382005C6E000E5D6E6DDF120070
:0A038C0031C0E9FF32C0EAFF1200A1
:10039600420E576E000E586E56505726D8B0582A41
:1003A600BCD12B0EE96E000EEA6E5650E926D8B087
:1003B600EA2AEE50000A18E056C059F0CEDE2B0E9F
:1003C600016E000E026E56500126D8B0022A01C0F8
:1003D600E9FF02C0EAFFEE04006E01C0E1FF02C0C1
:1003E600E2FF00C0E6FF0AD0420EE16E000EE26EAA
:1003F6005650E126D8B0E22A040EE66EB6D12B0E90
:10040600E96E000EEA6E5650E926D8B0EA2AEE509A
:10041600000A18E056C059F050DE2B0E016E000E91
:10042600026E56500126D8B0022A01C0E9FF02C06A
:10043600EAFFEE04006E01C0E1FF02C0E2FF00C069
:10044600E6FF0AD0420EE16E000EE26E5650E1263D
:10045600D8B0E22A040EE66E88D156C059F02DDED9
:10046600200E016E000E026E56500126D8B0022AEA
:1004760001C0E9FF02C0EAFFEE50010F006E01C0A5
:10048600E1FF02C0E2FF00C0E6FF200EE96E000EAB
:10049600EA6E5650E926D8B0EA2A030E006E000E20
:1004A600016E026E036E56C004F0000E056E066EF7
:1004B600076EDADDF80E0024F66E0C0E0120F76EDC
:1004C600000E0220F86E0900F5CF01F0EE5001187B
:1004D60052E1200EE16E000EE26E5650E126D8B0D3
:1004E600E22AE66A470EE96E000EEA6E5650E926E3
:1004F600D8B0EA2A800E000A006E800EEE18005C64
:1005060016E2470E016E000E026E56500126D8B056
:10051600022A01C0E9FF02C0EAFFEECF00F00006A2
:1005260001C0E1FF02C0E2FF00C0E6FF24D0470E93
:10053600E96E000EEA6E5650E926D8B0EA2A800E19
:10054600EE18006E800E000A005C0BE2420EE16EB1
:10055600000EE26E5650E126D8B0E22A030EE66E91
:100566000AD0420EE16E000EE26E5650E126D8B079
:10057600E22A040EE66EF9D056C059F0EEDD200EE2
:10058600016E000E026E56500126D8B0022A01C036
:10059600E9FF02C0EAFFEE50010F006E01C0E1FF65
:1005A60002C0E2FF00C0E6FF200EE96E000EEA6E12
:1005B6005650E926D8B0EA2A030E006E000E016EE8
:1005C600026E036E56C004F0000E056E066E076ED0
:1005D6004BDDF80E0024F66E0C0E0120F76E000EB1
:1005E6000220F86E0900F5CF01F0EE50011852E135
:1005F600200EE16E000EE26E5650E126D8B0E22AD9
:10060600E66A470EE96E000EEA6E5650E926D8B045
:10061600EA2A800E000A006E800EEE18005C0BE2DD
:10062600420EE16E000EE26E5650E126D8B0E22A86
:10063600020EE66E2FD0470EE96E000EEA6E565099
:10064600E926D8B0EA2A800EEE18006E800E000A5F
:10065600005C16E2470E016E000E026E5650012631
:10066600D8B0022A01C0E9FF02C0EAFFEECF00F0CF
:10067600002A01C0E1FF02C0E2FF00C0E6FF0AD087
:10068600420EE16E000EE26E5650E126D8B0E22A26
:10069600040EE66E6AD056C059F041DD470EE96E8B
:1006A600000EEA6E5650E926D8B0EA2A800E000AF5
:1006B600006E800EEE18005C0BE2420EE16E000E3C
:1006C600E26E5650E126D8B0E22A020EE66E19D046
:1006D600470EE96E000EEA6E5650E926D8B0EA2AB1
:1006E600800EEE18006E800E000A005C0AE2420ED2
:1006F600E16E000EE26E5650E126D8B0E22A030EF5
:10070600E66E33D0420EE16E000EE26E5650E126E2
:10071600D8B0E22A040EE66E28D057C0E9FF58C0CA
:10072600EAFFEE50000AD8B43CD657C0E9FF58C0DD
:10073600EAFFEE50010AD8B462D657C0E9FF58C0A6
:10074600EAFFEE50020AD8B488D657C0E9FF58C06F
:10075600EAFFEE50030AD8B40FD757C0E9FF58C0D6
:0C076600EAFFEE50040A97E0CDD7120025
:10077200240EE96E000EEA6E5650E926D8B0EA2A37
:100782005750EE5C5A6E56C059F0D3DC240EE16E1F
:10079200000EE26E5650E126D8B0E22A57C0E6FFBC
:0207A200120043
:1007A40056C059F05A6A0CDD240EE16E000EE26E5A
:0C07B4005650E126D8B0E22AE66A120096
:1007C000420EE16E000EE26E5650E126D8B0E22AEB
:1007D000040EE66E470EE16E000EE26E5650E12604
:0807E000D8B0E22AE66A12001B
:1007E80055C056F0D4DD55C056F055DD020E001444
:1007F800016E0150020A0CE155C056F04CDD010EA5
:100808000014016E0150010A03E155C056F0D4DF0F
:020818001200CC
:10081A00566AC3DF566A960E576EA6DF010E566EEB
:0E082A00BCDF010E566EC80E576E9EDF120028
:10083800359A31C0E1FF32C0E2FFE698555222E016
:10084800FF0E5518006E00C055F00050010F026EE3
:1008580002C055F031C000F032C001F0050E00248E
:10086800E16E000E0120E26E02C0E6FF31C0E1FF3A
:1008780032C0E2FFE68631C0E1FF32C0E2FFE6881F
:06088800358835861200E0
:10088E007EDDFDCFECFFFECFECFFFFCFECFF35861C
:04089E00060012003E
:1008A200E00EF26ED70ED56E850ECD6E9D0EB16E38
:1008B200D20ED66E9E909D80A192A082CE6AAA0E82
:0808C200CF6EB36AB26A1200A6
:0408CA00956A120019
:1008CE0029DD1B0E596E000E5A6E5B6A040E5C6EAD
:1008DE00000E5D6EC0DC240E596E000E5A6EFF0EB9
:0E08EE005B6E040E5C6E000E5D6EB5DC1200DB
:1008FC000B6A0A6A096A00500402F4CF09F0F3CFBC
:10090C0008F001500502F4CF0BF0F3CF0AF00050C1
:10091C000502F3500926F4500A22E86A0B22015012
:10092C000402F3500926F4500A22E86A0B2208C08C
:10093C0000F009C001F00AC002F00BC003F0120075
:10094C00556A4CDF050E556E71DF9BDF0000010E02
:10095C00556E44DF050E556E69DF93DF0000020E05
:10096C00556E3CDF050E556E61DF8BDF0000030E0C
:10097C00556E34DF050E556E59DF83DF0000E0D76E
:02098C00120057
:0E098E0045DF0A0E556E51DF7BDF00001200C0
:10099C0036A808D03B50010F006E00C03BF03B5214
:1009AC00D8B436983CA808D04150010F006E00C056
:1009BC0041F04152D8B43C984BAE05D04B50010F8E
:0809CC00006E00C04BF01200A8
:0809D40066DF79DF7ADF120013
:1009DC00176A010E1F6E466A369C3C9C360E316EB1
:1009EC00000E326E020E2F6E2F04006E016A000E86
:1009FC00015A330E0024E16E000E0120E26E00C09D
:100A0C00E6FF2F04006E016A000E015A290E002425
:100A1C00E16E000E0120E26EE66A2F062F52E4E131
:020A2C001200B6
:100A2E00AEDCEECF35F00500EE50FD6EEE50FE6EF4
:080A3E00EE50FF6E12001200E1
:100A46000900F5CFE6FF0006FBE10106F9E1120019
:100A56001792360E016E000E026E2F6A01C0E9FF74
:100A660002C0EAFFEECF00F000BC27D0508C5086C3
:100A7600010E0124E16E000E0220E26E51C0E6FF77
:100A860052C0E6FF53C0E6FF54C0E6FF050E012440
:100A9600E16E000E0220E26EE66A01C0E1FF02C0CE
:100AA600E2FF50C0E6FF0250321802E13150011851
:100AB60002E150C035F0179209D0060E0126000E4D
:0E0AC60002222F2A020E2F5CC9E317821200B3
:100AD4007FDF82DF010E506E8E0E516E090E526E54
:100AE400000E536E000E546EB4DF020E506E4C0EA8
:100AF400516E090E526E000E536E000E546EA9DF35
:100B0400F28ED0BEF28C17981786166A1A6A17A44A
:100B140001D00FD0020E196E1904006E016A000E86
:100B2400015A330E0024E96E000E0120EA6EEECF66
:100B340028F0060E006E000E016E28C004F0000EB0
:100B4400056EDADE360E0024316E000E0120326EA0
:100B540031C0E9FF32C0EAFF010E006E350EE16ECE
:100B6400000EE26EEECFE6FF0006FCE135AC03D0EA
:100B740035BE01D001D086D035B643D056DF04DC73
:100B8400D70EEF16280E3514006E0050EF1217B66C
:100B940038D035B603D018B001D032D0290E016E4A
:100BA400000E026E28500126D8B0022A01C0E9FFC7
:100BB40002C0EAFF1A50EE5C006E01C0E1FF02C001
:100BC400E2FF00C0E6FF30C019F0195217E0330EFF
:100BD400E16E000EE26E1950E126D8B0E22A190443
:100BE400006E016A000E015A330E0024E96E000EF5
:100BF4000120EA6EEECFE6FF1906E7D728C033F0EE
:100C040077D035A803D035BA01D03CD035A63AD038
:100C1400290EE96E000EEA6E2850E926D8B0EA2AB9
:100C2400EECF01F001C02FF001BE1CD0080E2F241E
:100C3400016E01C02FF031C0E9FF32C0EAFFEECFF0
:100C440000F0070E00160050015C006E00C02FF08B
:100C5400290EE16E000EE26E2850E126D8B0E22A99
:100C640000C0E6FF2F50165C08E216C01AF02FC031
:100C740016F01904306E178805D02F501A5C02E262
:100C84002FC01AF017B404D01906195201E044D742
:100C940017A82ED017961890330ED96E000EDA6E60
:100CA4003050D926D8B0DA2ADECF00F000C028F0C0
:100CB400000E016E060E046E000E056E1DDE360E6D
:100CC4000024316E000E0120326E31C0E9FF32C0C3
:100CD400EAFF010E006E350EE16E000EE26EEECFFD
:100CE400E6FF0006FCE135AC03D035BE01D046D7A3
:040CF4000AD7FFD745
:0C0CF80001320001320105E80205E803AA
:020000040030CA
:0D000100071F1EFF8381FF0FC00FE00F409F
:00000001FF
