:04000000F9EF04F020
:020006001200E6
:1000080000C015F0F2A405D0F294D20ED66E7BECA7
:1000180004F0A1A202D0A192F2DF9EA004D09E908B
:0C002800CE6AAA0ECF6E15C000F01100C9
:10003400220E0C6E086A096A0A6A0B6A0C06D8B4A6
:100044001FD0D8900B320A320932083203320232FE
:1000540001320032D8A0F2D70C06D8B409D004502B
:1000640008260550092206500A2207500B22EAD717
:10007400045008260550092206500A2207500B2274
:02008400120068
:100086005D50000A06E1F00E8314006E5E5000100B
:10009600836E5D50010A10E10F0E8314026E5EC07E
:1000A60000F00036009000360090003600900036D2
:0A00B600009000500210836E12004B
:1000C000380E016E000E026E5D500126D8B0022A75
:1000D00001C0E9FF02C0EAFF5E50EE24006E01C0DD
:0C00E000E1FF02C0E2FF00C0E6FF1200DA
:1000EC002F0EE96E000EEA6E5D50E926D8B0EA2AB2
:1000FC00EE50000A44E12F0E5F6E000E606E5D50F4
:10010C005F26D8B0602A030E006E000E016E026EE0
:10011C00036E5DC004F0000E056E066E076E84DF84
:10012C00180E00260C0E0122000E0222010E0024D5
:10013C00F66E000E0120F76E000E0220F86E09001C
:10014C00F5CF00F05FC0E1FF60C0E2FF00C0E6FF4A
:10015C005E50000A0AE13C0EE16E000EE26E5D504C
:10016C00E126D8B0E22AE66A0AD03C0EE16E000E17
:10017C00E26E5D50E126D8B0E22A010EE66E120066
:10018C004B0E046E000E056E58500426D8B0052A8E
:10019C0004C0E9FF05C0EAFFEECF03F003C002F094
:1001AC000236029003C000F00032009E0032009E26
:1001BC000032009E025000120F0E001604C0E1FF28
:1001CC0005C0E2FF00C0E6FF58C05DF04B0EE96EC3
:1001DC00000EEA6E5850E926D8B0EA2AEECF5EF04F
:0401EC004CDF1200D2
:0C01F00058C05DF00F0E5E6E46DF12007E
:0A01FC0016C0E9FF17C0EAFF120069
:1002060058C002F059C003F05BC000F05CC001F0BA
:10021600010E5B5E000E5C5A0050011009E002C040
:10022600E1FF03C0E2FF5AC0E6FF024A032AECD709
:0A02360058C000F059C001F012009A
:100240004B0E046E000E056E58500426D8B0052AD9
:1002500004C0E9FF05C0EAFFEECF03F003C002F0DF
:100260000232029E03C000F000360090003600907B
:1002700000360090025000120F0E001604C0E1FF7D
:1002800005C0E2FF00C0E6FF58C05DF04B0EE96E0E
:10029000000EEA6E5850E926D8B0EA2AEECF5EF09A
:0402A000F2DE120078
:1002A40058C05DF05E6A20DF420EE16E000EE26E21
:0C02B4005850E126D8B0E22AE66A120099
:1002C000420EE96E000EEA6E5850E926D8B0EA2ACE
:1002D0005950EE5C5E6E58C05DF0F2DE420EE16E8B
:1002E000000EE26E5850E126D8B0E22A59C0E6FF6F
:0202F0001200FA
:1002F200E00EF26ED70ED56E850ECD6E9D0EB16EEE
:10030200D20ED66E9E909D80A192A082CE6AAA0E37
:08031200CF6EB36AB26A12005B
:04031A00956A1200CE
:10031E004B0E586E000E596E090E5A6E040E5B6E21
:10032E00000E5C6E69DF380E586E000E596E5A6AFA
:10033E00040E5B6E000E5C6E5FDF3C0E586E000EA0
:10034E00596E040E5A6E040E5B6E000E5C6E54DF18
:10035E00340E586E000E596E5A6A040E5B6E000E05
:10036E005C6E4ADF2F0E586E000E596E5A6A0C0ED6
:0A037E005B6E000E5C6E40DF1200A3
:1003880039DFFDCFECFFFECFECFFFFCFECFF288677
:040398000600120049
:10039C00289A16C0E1FF17C0E2FFE698555222E0FA
:1003AC00FF0E5518006E00C055F00050010F026E84
:1003BC0002C055F016C000F017C001F0050E002465
:1003CC00E16E000E0120E26E02C0E6FF16C0E1FFF6
:1003DC0017C0E2FFE68616C0E1FF17C0E2FFE68811
:0603EC002888288612009B
:1003F2003C0E566E000E576E55505626D8B0572AF0
:10040200BCD12F0EE96E000EEA6E5550E926D8B027
:10041200EA2AEE50000A18E055C058F010DF2F0EFD
:10042200016E000E026E55500126D8B0022A01C09C
:10043200E9FF02C0EAFFEE04006E01C0E1FF02C064
:10044200E2FF00C0E6FF0AD03C0EE16E000EE26E53
:100452005550E126D8B0E22A040EE66EB6D12F0E30
:10046200E96E000EEA6E5550E926D8B0EA2AEE503F
:10047200000A18E055C058F088DE2F0E016E000EFB
:10048200026E55500126D8B0022A01C0E9FF02C00F
:10049200EAFFEE04006E01C0E1FF02C0E2FF00C00D
:1004A200E6FF0AD03C0EE16E000EE26E5550E126E8
:1004B200D8B0E22A040EE66E88D155C058F065DE47
:1004C200340E016E000E026E55500126D8B0022A7B
:1004D20001C0E9FF02C0EAFFEE50010F006E01C049
:1004E200E1FF02C0E2FF00C0E6FF340EE96E000E3B
:1004F200EA6E5550E926D8B0EA2A030E006E000EC5
:10050200016E026E036E55C004F0000E056E066E9B
:10051200076E8FDD180E0024F66E0C0E0120F76EAA
:10052200000E0220F86E0900F5CF01F0EE5001181E
:1005320052E1340EE16E000EE26E5550E126D8B063
:10054200E22AE66A380EE96E000EEA6E5550E92696
:10055200D8B0EA2A800E000A006E800EEE18005C07
:1005620016E2380E016E000E026E55500126D8B00A
:10057200022A01C0E9FF02C0EAFFEECF00F0000646
:1005820001C0E1FF02C0E2FF00C0E6FF24D0380E46
:10059200E96E000EEA6E5550E926D8B0EA2A800EBE
:1005A200EE18006E800E000A005C0BE23C0EE16E5B
:1005B200000EE26E5550E126D8B0E22A030EE66E36
:1005C2000AD03C0EE16E000EE26E5550E126D8B024
:1005D200E22A040EE66EF9D055C058F030DE340E31
:1005E200016E000E026E55500126D8B0022A01C0DB
:1005F200E9FF02C0EAFFEE50010F006E01C0E1FF09
:1006020002C0E2FF00C0E6FF340EE96E000EEA6EA1
:100612005550E926D8B0EA2A030E006E000E016E8C
:10062200026E036E55C004F0000E056E066E076E74
:1006320000DD180E0024F66E0C0E0120F76E000E7F
:100642000220F86E0900F5CF01F0EE50011852E1D8
:10065200340EE16E000EE26E5550E126D8B0E22A69
:10066200E66A380EE96E000EEA6E5550E926D8B0F9
:10067200EA2A800E000A006E800EEE18005C0BE281
:100682003C0EE16E000EE26E5550E126D8B0E22A31
:10069200020EE66E2FD0380EE96E000EEA6E55504D
:1006A200E926D8B0EA2A800EEE18006E800E000A03
:1006B200005C16E2380E016E000E026E55500126E5
:1006C200D8B0022A01C0E9FF02C0EAFFEECF00F073
:1006D200002A01C0E1FF02C0E2FF00C0E6FF0AD02B
:1006E2003C0EE16E000EE26E5550E126D8B0E22AD1
:1006F200040EE66E6AD055C058F079DD380EE96E08
:10070200000EEA6E5550E926D8B0EA2A800E000A99
:10071200006E800EEE18005C0BE23C0EE16E000EE5
:10072200E26E5550E126D8B0E22A020EE66E19D0EA
:10073200380EE96E000EEA6E5550E926D8B0EA2A64
:10074200800EEE18006E800E000A005C0AE23C0E7B
:10075200E16E000EE26E5550E126D8B0E22A030E99
:10076200E66E33D03C0EE16E000EE26E5550E1268D
:10077200D8B0E22A040EE66E28D056C0E9FF57C070
:10078200EAFFEE50000AD8B43CD656C0E9FF57C083
:10079200EAFFEE50010AD8B462D656C0E9FF57C04C
:1007A200EAFFEE50020AD8B488D656C0E9FF57C015
:1007B200EAFFEE50030AD8B40FD756C0E9FF57C07C
:0C07C200EAFFEE50040A97E0CDD71200C9
:1007CE00470E586E000E596E5A6A040E5B6E000E7E
:1007DE005C6E12DD420E586E000E596EFF0E5A6E92
:0C07EE00040E5B6E000E5C6E07DD120056
:1007FA00586A53DD586A960E596E5DDD010E586EC1
:0E080A004CDD010E586EC80E596E55DD120001
:100818002A921A0E016E000E026E406A01C0E9FFAC
:1008280002C0EAFFEECF00F000BC27D0508C508603
:10083800010E0124E16E000E0220E26E51C0E6FFB7
:1008480052C0E6FF53C0E6FF54C0E6FF050E012480
:10085800E16E000E0220E26EE66A01C0E1FF02C00E
:10086800E2FF50C0E6FF0250171802E116500118C7
:1008780002E150C028F02A9209D0060E0126000E87
:0E0888000222402A020E405CC9E32A821200BE
:100896002A6A010E466E336A1A9C209C1A0E166E40
:1008A600000E176E020E406E4004006E016A000EC6
:1008B600015A180E0024E16E000E0120E26E00C0FF
:1008C600E6FF4004006E016A000E015A260E00245F
:1008D600E16E000E0120E26EE66A40064052E4E157
:0208E6001200FE
:0E08E80088DF0A0E556E56DD4BDD0000120053
:1008F6001AA808D01F50010F006E00C01FF01F522B
:10090600D8B41A9820A808D02550010F006E00C050
:1009160025F02552D8B420984FAE05D04F50010F80
:08092600006E00C04FF012004A
:0A092E00E1DCF4DCF5DC4CDF120024
:10093800556A5BDD050E556E2DDD22DD0000010ECA
:10094800556E53DD050E556E25DD1ADD0000020ECD
:10095800556E4BDD050E556E1DDD12DD0000030ED4
:10096800556E43DD050E556E15DD0ADD0000E0D736
:0209780012006B
:10097A0040DCEECF28F00500EE50FD6EEE50FE6E24
:08098A00EE50FF6E1200120096
:100992000900F5CFE6FF0006FBE10106F9E11200CE
:1009A2000B6A0A6A096A00500402F4CF09F0F3CF15
:1009B20008F001500502F4CF0BF0F3CF0AF000501B
:1009C2000502F3500926F4500A22E86A0B2201506C
:1009D2000402F3500926F4500A22E86A0B2208C0E6
:1009E20000F009C001F00AC002F00BC003F01200CF
:1009F2009DDF50DF010E506EE80E516E080E526EF2
:100A0200000E536E000E546E06DF020E506E380E4C
:100A1200516E090E526E000E536E000E546EFBDEC6
:100A2200F28ED0BEF28C2A982A86296A2C6A2AA4CF
:100A320001D00FD0020E2E6E2E04006E016A000E3F
:100A4200015A180E0024E96E000E0120EA6EEECF64
:100A52002DF0060E006E000E016E2DC004F0000E89
:100A6200056E9EDF1A0E0024166E000E0120176E10
:100A720016C0E9FF17C0EAFF010E006E280EE16EF4
:100A8200000EE26EEECFE6FF0006FCE128AC03D0DA
:100A920028BE01D001D087D028B644D06DDFFEEC4D
:100AA20000F0D70EEF16280E2814006E0050EF1239
:100AB2002AB638D028B603D02BB001D032D0260EB9
:100AC200016E000E026E2D500126D8B0022A01C01E
:100AD200E9FF02C0EAFF2C50EE5C006E01C0E1FFAC
:100AE20002C0E2FF00C0E6FF41C02EF02E5217E026
:100AF200180EE16E000EE26E2E50E126D8B0E22A08
:100B02002E04006E016A000E015A180E0024E96ECE
:100B1200000E0120EA6EEECFE6FF2E06E7D72DC0CB
:100B220018F077D028A803D028BA01D03CD028A644
:100B32003AD0260EE96E000EEA6E2D50E926D8B0A4
:100B4200EA2AEECF01F001C040F001BE1CD0080E2F
:100B52004024016E01C040F016C0E9FF17C0EAFF51
:100B6200EECF00F0070E00160050015C006E00C0D0
:100B720040F0260EE16E000EE26E2D50E126D8B056
:100B8200E22A00C0E6FF4050295C08E229C02CF0AE
:100B920040C029F02E04416E2A8805D040502C5CBA
:100BA20002E240C02CF02AB404D02E062E5201E0FC
:100BB20043D72AA82ED02A962B90180ED96E000E53
:100BC200DA6E4150D926D8B0DA2ADECF00F000C062
:100BD2002DF0000E016E060E046E000E056EE0DEB4
:100BE2001A0E0024166E000E0120176E16C0E9FFC1
:100BF20017C0EAFF010E006E280EE16E000EE26ED3
:100C0200EECFE6FF0006FCE128AC03D028BE01D0FF
:060C120045D709D7FFD70A
:0C0C180005320005320105E80205E80382
:020000040030CA
:0D000100071F1EFF8381FF0FC00FE00F409F
:00000001FF
